{
  "_format": "hh-sol-artifact-1",
  "contractName": "FundVault",
  "sourceName": "contracts/FundVault.sol",
  "abi": [
    {
      "inputs": [
        {
          "internalType": "address payable",
          "name": "_creator",
          "type": "address"
        },
        {
          "internalType": "uint256",
          "name": "_goal",
          "type": "uint256"
        },
        {
          "internalType": "uint256",
          "name": "_durationSeconds",
          "type": "uint256"
        }
      ],
      "stateMutability": "nonpayable",
      "type": "constructor"
    },
    {
      "inputs": [],
      "name": "balance",
      "outputs": [
        {
          "internalType": "uint256",
          "name": "",
          "type": "uint256"
        }
      ],
      "stateMutability": "view",
      "type": "function"
    },
    {
      "inputs": [],
      "name": "canWithdraw",
      "outputs": [
        {
          "internalType": "bool",
          "name": "",
          "type": "bool"
        }
      ],
      "stateMutability": "view",
      "type": "function"
    },
    {
      "inputs": [],
      "name": "creator",
      "outputs": [
        {
          "internalType": "address payable",
          "name": "",
          "type": "address"
        }
      ],
      "stateMutability": "view",
      "type": "function"
    },
    {
      "inputs": [],
      "name": "deadline",
      "outputs": [
        {
          "internalType": "uint256",
          "name": "",
          "type": "uint256"
        }
      ],
      "stateMutability": "view",
      "type": "function"
    },
    {
      "inputs": [],
      "name": "goal",
      "outputs": [
        {
          "internalType": "uint256",
          "name": "",
          "type": "uint256"
        }
      ],
      "stateMutability": "view",
      "type": "function"
    },
    {
      "inputs": [],
      "name": "withdraw",
      "outputs": [],
      "stateMutability": "nonpayable",
      "type": "function"
    },
    {
      "stateMutability": "payable",
      "type": "receive"
    }
  ],
  "bytecode": "0x608060405234801561001057600080fd5b506040516105bf3803806105bf8339818101604052810190610032919061012c565b826000806101000a81548173ffffffffffffffffffffffffffffffffffffffff021916908373ffffffffffffffffffffffffffffffffffffffff16021790555081600181905550804261008591906101ae565b6002819055505050506101e2565b600080fd5b600073ffffffffffffffffffffffffffffffffffffffff82169050919050565b60006100c382610098565b9050919050565b6100d3816100b8565b81146100de57600080fd5b50565b6000815190506100f0816100ca565b92915050565b6000819050919050565b610109816100f6565b811461011457600080fd5b50565b60008151905061012681610100565b92915050565b60008060006060848603121561014557610144610093565b5b6000610153868287016100e1565b935050602061016486828701610117565b925050604061017586828701610117565b9150509250925092565b7f4e487b7100000000000000000000000000000000000000000000000000000000600052601160045260246000fd5b60006101b9826100f6565b91506101c4836100f6565b92508282019050808211156101dc576101db61017f565b5b92915050565b6103ce806101f16000396000f3fe6080604052600436106100595760003560e01c806302d05d3f1461006557806329dcb0cf146100905780633ccfd60b146100bb57806340193883146100d2578063b51459fe146100fd578063b69ef8a81461012857610060565b3661006057005b600080fd5b34801561007157600080fd5b5061007a610153565b6040516100879190610296565b60405180910390f35b34801561009c57600080fd5b506100a5610177565b6040516100b291906102ca565b60405180910390f35b3480156100c757600080fd5b506100d061017d565b005b3480156100de57600080fd5b506100e761022d565b6040516100f491906102ca565b60405180910390f35b34801561010957600080fd5b50610112610233565b60405161011f9190610300565b60405180910390f35b34801561013457600080fd5b5061013d61024d565b60405161014a91906102ca565b60405180910390f35b60008054906101000a900473ffffffffffffffffffffffffffffffffffffffff1681565b60025481565b610185610233565b6101c4576040517f08c379a00000000000000000000000000000000000000000000000000000000081526004016101bb90610378565b60405180910390fd5b60008054906101000a900473ffffffffffffffffffffffffffffffffffffffff1673ffffffffffffffffffffffffffffffffffffffff166108fc479081150290604051600060405180830381858888f1935050505015801561022a573d6000803e3d6000fd5b50565b60015481565b60006001544710158061024857506002544210155b905090565b600047905090565b600073ffffffffffffffffffffffffffffffffffffffff82169050919050565b600061028082610255565b9050919050565b61029081610275565b82525050565b60006020820190506102ab6000830184610287565b92915050565b6000819050919050565b6102c4816102b1565b82525050565b60006020820190506102df60008301846102bb565b92915050565b60008115159050919050565b6102fa816102e5565b82525050565b600060208201905061031560008301846102f1565b92915050565b600082825260208201905092915050565b7f436f6e646974696f6e73206e6f74206d65740000000000000000000000000000600082015250565b600061036260128361031b565b915061036d8261032c565b602082019050919050565b6000602082019050818103600083015261039181610355565b905091905056fea26469706673582212203173fdd9c38ab4fad6eb0192bd048711d876d88997eff72c7306e3315d46b52264736f6c63430008180033",
  "linkReferences": {},
  "deployedLinkReferences": {}
}